:100000000C9472000C9486000C9486000C9486006C
:100010000C9486000C9486000C9486000C94860048
:100020000C9486000C9486000C9486000C94860038
:100030000C9486000C9486000C9486000C94860028
:100040000C9486000C9486000C9486000C94860018
:100050000C9486000C9486000C9486000C94860008
:100060000C9486000C94C6000C9486000C948600B8
:100070000C9486000C9486000C9486000C948600E8
:100080000C9486000C9486000C9486000C948600D8
:100090000C9486000C9486000C9486000C948600C8
:1000A0000C9486000C9486000C9486000C948600B8
:1000B0000C9486000C9486000C9486000C948600A8
:1000C0000C9486000C9486000C9486000C94860098
:1000D0000C9486000C9486000C9486000C94860088
:1000E0000C94860011241FBECFEFD1E2DEBFCDBF3E
:1000F00000E00CBF22E0A0E0B2E001C01D92A434F9
:10010000B207E1F70E9406010C9458010C9400001C
:100110001092C50089E18093C400E0ECF0E080819A
:100120008D7F808386E08093C20088E98093C10040
:1001300008959091C00095FFFCCF8093C60008956C
:100140000F931F93CF93DF938C0180E3860F0E9460
:1001500099008AE30E949900E8018991811105C004
:10016000DF91CF911F910F9108950E949900F5CFD3
:100170008093C6008091C00086FFFCCF08958091D7
:10018000C00087FFFCCF8091C60008951F920F9298
:100190000FB60F9211240BB60F922F933F934F93EC
:1001A0005F936F937F938F939F93AF93BF93CF93FF
:1001B000DF93EF93FF93C0910202D09103020E945C
:1001C000BF00CC5FDD4F88838091020290910302D3
:1001D000019660E470E00E943001909303028093E6
:1001E0000202FF91EF91DF91CF91BF91AF919F916B
:1001F0008F917F916F915F914F913F912F910F90D0
:100200000BBE0F900FBE0F901F901895F8940E9490
:1002100088007894259A81E60E94990000E410E015
:10022000C0E280910002909101022091020230917F
:10023000030282179307C9F3FC01EC5FFD4F208195
:100240000196B8010E943001909301028093000250
:1002500085B18C2785B981E0820F0E949900E1CF9A
:1002600097FB072E16F4009407D077FD09D00E9463
:10027000440107FC05D03EF4909581959F4F089569
:10028000709561957F4F0895AA1BBB1B51E107C074
:10029000AA1FBB1FA617B70710F0A61BB70B881F16
:1002A000991F5A95A9F780959095BC01CD010895A5
:0402B000F894FFCFF0
:00000001FF
